{
  "contractName": "CrowdFundingLesson5Homework",
  "abi": [
    {
      "inputs": [],
      "stateMutability": "nonpayable",
      "type": "constructor"
    },
    {
      "anonymous": false,
      "inputs": [
        {
          "indexed": false,
          "internalType": "uint256",
          "name": "campaignId",
          "type": "uint256"
        },
        {
          "indexed": false,
          "internalType": "address",
          "name": "sender",
          "type": "address"
        },
        {
          "indexed": false,
          "internalType": "uint256",
          "name": "amount",
          "type": "uint256"
        }
      ],
      "name": "CampaignBidLog",
      "type": "event"
    },
    {
      "anonymous": false,
      "inputs": [
        {
          "indexed": false,
          "internalType": "uint256",
          "name": "campaignId",
          "type": "uint256"
        },
        {
          "indexed": false,
          "internalType": "address",
          "name": "receiver",
          "type": "address"
        },
        {
          "indexed": false,
          "internalType": "uint256",
          "name": "goal",
          "type": "uint256"
        }
      ],
      "name": "CampaignLog",
      "type": "event"
    },
    {
      "inputs": [
        {
          "internalType": "uint256",
          "name": "",
          "type": "uint256"
        }
      ],
      "name": "campaignsArray",
      "outputs": [
        {
          "internalType": "address payable",
          "name": "receiver",
          "type": "address"
        },
        {
          "internalType": "uint256",
          "name": "numFunders",
          "type": "uint256"
        },
        {
          "internalType": "uint256",
          "name": "fundingGoal",
          "type": "uint256"
        },
        {
          "internalType": "uint256",
          "name": "totalAmount",
          "type": "uint256"
        }
      ],
      "stateMutability": "view",
      "type": "function"
    },
    {
      "inputs": [
        {
          "internalType": "uint256",
          "name": "",
          "type": "uint256"
        },
        {
          "internalType": "address",
          "name": "",
          "type": "address"
        }
      ],
      "name": "isPartcipate",
      "outputs": [
        {
          "internalType": "bool",
          "name": "",
          "type": "bool"
        }
      ],
      "stateMutability": "view",
      "type": "function"
    },
    {
      "inputs": [],
      "name": "numCampaigns",
      "outputs": [
        {
          "internalType": "uint256",
          "name": "",
          "type": "uint256"
        }
      ],
      "stateMutability": "view",
      "type": "function"
    },
    {
      "inputs": [
        {
          "internalType": "address payable",
          "name": "receiver",
          "type": "address"
        },
        {
          "internalType": "uint256",
          "name": "goal",
          "type": "uint256"
        }
      ],
      "name": "newCampaign",
      "outputs": [
        {
          "internalType": "uint256",
          "name": "campaignId",
          "type": "uint256"
        }
      ],
      "stateMutability": "nonpayable",
      "type": "function"
    },
    {
      "inputs": [
        {
          "internalType": "uint256",
          "name": "campaignId",
          "type": "uint256"
        }
      ],
      "name": "bid",
      "outputs": [],
      "stateMutability": "payable",
      "type": "function"
    },
    {
      "inputs": [
        {
          "internalType": "uint256",
          "name": "campaignId",
          "type": "uint256"
        }
      ],
      "name": "getTotalAmount",
      "outputs": [
        {
          "internalType": "uint256",
          "name": "amount",
          "type": "uint256"
        }
      ],
      "stateMutability": "view",
      "type": "function"
    },
    {
      "inputs": [
        {
          "internalType": "uint256",
          "name": "campaignId",
          "type": "uint256"
        }
      ],
      "name": "withdraw",
      "outputs": [
        {
          "internalType": "bool",
          "name": "reached",
          "type": "bool"
        }
      ],
      "stateMutability": "nonpayable",
      "type": "function"
    }
  ],
  "bytecode": "0x60a060405234801561001057600080fd5b503360805260805161063361003060003960006103ae01526106336000f3fe6080604052600436106100705760003560e01c80636780b75a1161004e5780636780b75a146100e3578063f0e406621461012d578063f7572cf31461015d578063fc6da6a41461017d57600080fd5b80632c0f7b6f146100755780632e1a7d4d1461009e578063454a2ab3146100ce575b600080fd5b34801561008157600080fd5b5061008b60005481565b6040519081526020015b60405180910390f35b3480156100aa57600080fd5b506100be6100b9366004610528565b6101b8565b6040519015158152602001610095565b6100e16100dc366004610528565b610230565b005b3480156100ef57600080fd5b506101036100fe366004610528565b61035d565b604080516001600160a01b0390951685526020850193909352918301526060820152608001610095565b34801561013957600080fd5b5061008b610148366004610528565b60009081526001602052604090206003015490565b34801561016957600080fd5b5061008b610178366004610559565b6103a1565b34801561018957600080fd5b506100be610198366004610585565b600360209081526000928352604080842090915290825290205460ff1681565b60008181526001602052604081206002810154600382015410156101df5750600092915050565b600381018054600091829055825460405191926001600160a01b039091169183156108fc0291849190818181858888f19350505050158015610225573d6000803e3d6000fd5b506001949350505050565b6000818152600360209081526040808320338452909152902054819060ff161561025957600080fd5b60008281526001602052604081206003810180549192349261027c9084906105cb565b9091555050600181810180546000906102969084906105cb565b90915550506000838152600260208181526040808420815180830183523380825234828601818152845460018082018755958a52878a209451980290930180546001600160a01b0319166001600160a01b0390981697909717875591519583019590955588865260038452828620858752845294829020805460ff19169091179055805187815291820192909252908101919091527f9cb964885091af8b6b666b93b290eacb14fe3a7035012f425a5e445bbbdb410d9060600160405180910390a1505050565b6004818154811061036d57600080fd5b600091825260209091206004909102018054600182015460028301546003909301546001600160a01b039092169350919084565b6000336001600160a01b037f000000000000000000000000000000000000000000000000000000000000000016146103d857600080fd5b6000805490806103e7836105e4565b90915550600081815260016020818152604080842080546001600160a01b038a81166001600160a01b031992831681178455600284018b815560048054808a01825599819052855499027f8a35acfbc15ff81a39ae7d344fd709f28e8600b4aa8c65c6b64bfe7fe36bd19b810180549095169990931698909817909255948201547f8a35acfbc15ff81a39ae7d344fd709f28e8600b4aa8c65c6b64bfe7fe36bd19c86015594547f8a35acfbc15ff81a39ae7d344fd709f28e8600b4aa8c65c6b64bfe7fe36bd19d85015560038101547f8a35acfbc15ff81a39ae7d344fd709f28e8600b4aa8c65c6b64bfe7fe36bd19e909401939093558051858152918201939093529182018590529192507fd5979c3bd81a7e1a390fc8030ec1389d2ef3309f57e15ff428366366c5fa226c9060600160405180910390a15092915050565b60006020828403121561053a57600080fd5b5035919050565b6001600160a01b038116811461055657600080fd5b50565b6000806040838503121561056c57600080fd5b823561057781610541565b946020939093013593505050565b6000806040838503121561059857600080fd5b8235915060208301356105aa81610541565b809150509250929050565b634e487b7160e01b600052601160045260246000fd5b808201808211156105de576105de6105b5565b92915050565b6000600182016105f6576105f66105b5565b506001019056fea2646970667358221220a30f9c69a8865f05cb08ebb6cd6cbee985a8427aa52cd65ba63c06c6230965ba64736f6c63430008130033",
  "immutableReferences": {
    "1450": [
      {
        "length": 32,
        "start": 942
      }
    ]
  },
  "source": "// SPDX-License-Identifier: GPL-3.0\r\n\r\npragma solidity =0.8.19;\r\n\r\ncontract CrowdFundingStorage {\r\n  struct Campaign {\r\n    address payable receiver;\r\n    uint numFunders;\r\n    uint fundingGoal;\r\n    uint totalAmount;\r\n  }\r\n\r\n  struct Funder {\r\n    address addr;\r\n    uint amount;\r\n  }\r\n\r\n  uint public numCampaigns;\r\n  mapping(uint => Campaign) campaigns;\r\n  mapping(uint => Funder[]) funders;\r\n\r\n  mapping(uint => mapping(address => bool)) public isPartcipate;\r\n\r\n  Campaign[] public campaignsArray;\r\n\r\n  modifier judgeParticipate(uint campaignId) {\r\n    require(isPartcipate[campaignId][msg.sender] == false);\r\n    _;\r\n  }\r\n}\r\n\r\ncontract CrowdFundingLesson5Homework is CrowdFundingStorage {\r\n  address immutable owner;\r\n\r\n  event CampaignLog(uint campaignId, address receiver, uint goal);\r\n  event CampaignBidLog(uint campaignId, address sender, uint amount);\r\n\r\n  constructor() {\r\n    owner = msg.sender;\r\n  }\r\n\r\n  modifier isOwner() {\r\n    require(msg.sender == owner);\r\n    _;\r\n  }\r\n\r\n  function newCampaign(address payable receiver, uint goal) external isOwner returns (uint campaignId) {\r\n    campaignId = numCampaigns++;\r\n    Campaign storage c = campaigns[campaignId];\r\n    c.receiver = receiver;\r\n    c.fundingGoal = goal;\r\n\r\n    campaignsArray.push(c);\r\n    emit CampaignLog(campaignId, receiver, goal);\r\n  }\r\n\r\n  function bid(uint campaignId) external payable judgeParticipate(campaignId) {\r\n    Campaign storage c = campaigns[campaignId];\r\n\r\n    c.totalAmount += msg.value;\r\n    c.numFunders += 1;\r\n\r\n    funders[campaignId].push(Funder({addr: msg.sender, amount: msg.value}));\r\n\r\n    isPartcipate[campaignId][msg.sender] = true;\r\n    emit CampaignBidLog(campaignId, msg.sender, msg.value);\r\n  }\r\n\r\n  function getTotalAmount(uint campaignId) external view returns (uint amount) {\r\n    Campaign storage c = campaigns[campaignId];\r\n    amount = c.totalAmount;\r\n  }\r\n\r\n  function withdraw(uint campaignId) external returns (bool reached) {\r\n    Campaign storage c = campaigns[campaignId];\r\n\r\n    if (c.totalAmount < c.fundingGoal) {\r\n      return false;\r\n    }\r\n\r\n    uint amount = c.totalAmount;\r\n    c.totalAmount = 0;\r\n    c.receiver.transfer(amount);\r\n\r\n    return true;\r\n  }\r\n}\r\n",
  "sourcePath": "E:\\git_2023\\tintin-lesson-4\\contracts\\CrowdFundingLesson5Homework.sol",
  "compiler": {
    "name": "solc",
    "version": "0.8.19+commit.7dd6d404.Emscripten.clang"
  },
  "schemaVersion": "3.4.13",
  "updatedAt": "2023-04-20T11:42:26.745Z",
  "devdoc": {
    "kind": "dev",
    "methods": {},
    "version": 1
  },
  "userdoc": {
    "kind": "user",
    "methods": {},
    "version": 1
  }
}