{
  "contractName": "CrowdFundingStorage",
  "abi": [
    {
      "inputs": [
        {
          "internalType": "uint256",
          "name": "",
          "type": "uint256"
        },
        {
          "internalType": "address",
          "name": "",
          "type": "address"
        }
      ],
      "name": "isPartcipate",
      "outputs": [
        {
          "internalType": "bool",
          "name": "",
          "type": "bool"
        }
      ],
      "stateMutability": "view",
      "type": "function"
    },
    {
      "inputs": [],
      "name": "numCampaigns",
      "outputs": [
        {
          "internalType": "uint256",
          "name": "",
          "type": "uint256"
        }
      ],
      "stateMutability": "view",
      "type": "function"
    }
  ],
  "bytecode": "0x608060405234801561001057600080fd5b5060fc8061001f6000396000f3fe6080604052348015600f57600080fd5b506004361060325760003560e01c80632c0f7b6f146037578063fc6da6a4146052575b600080fd5b603f60005481565b6040519081526020015b60405180910390f35b607d605d366004608c565b600360209081526000928352604080842090915290825290205460ff1681565b60405190151581526020016049565b60008060408385031215609e57600080fd5b8235915060208301356001600160a01b038116811460bb57600080fd5b80915050925092905056fea26469706673582212206ad130791d904fd896869b7135206c025fd64e36f36a340ca1da8ccc9ab16fb864736f6c63430008130033",
  "immutableReferences": {},
  "source": "/**\r\n *Submitted for verification at polygonscan.com on 2023-03-28\r\n */\r\n\r\n// SPDX-License-Identifier: GPL-3.0\r\n\r\npragma solidity =0.8.19;\r\n\r\ncontract CrowdFundingStorage {\r\n    struct Campaign {\r\n        address payable receiver;\r\n        uint numFunders;\r\n        uint fundingGoal;\r\n        uint totalAmount;\r\n    }\r\n\r\n    struct Funder {\r\n        address addr;\r\n        uint amount;\r\n    }\r\n\r\n    uint public numCampaigns;\r\n    mapping(uint => Campaign) campaigns;\r\n    mapping(uint => Funder[]) funders;\r\n\r\n    mapping(uint => mapping(address => bool)) public isPartcipate;\r\n\r\n    modifier judgeParticipate(uint campaignId) {\r\n        require(isPartcipate[campaignId][msg.sender] == false);\r\n        _;\r\n    }\r\n}\r\n\r\ncontract CrowdFunding is CrowdFundingStorage {\r\n    address immutable owner;\r\n\r\n    constructor() {\r\n        owner = msg.sender;\r\n    }\r\n\r\n    modifier isOwner() {\r\n        require(msg.sender == owner);\r\n        _;\r\n    }\r\n\r\n    function newCampaign(\r\n        address payable receiver,\r\n        uint goal\r\n    ) external isOwner returns (uint campaignId) {\r\n        campaignId = numCampaigns++;\r\n        Campaign storage c = campaigns[campaignId];\r\n        c.receiver = receiver;\r\n        c.fundingGoal = goal;\r\n    }\r\n\r\n    function bid(\r\n        uint campaignId\r\n    ) external payable judgeParticipate(campaignId) {\r\n        Campaign storage c = campaigns[campaignId];\r\n\r\n        c.totalAmount += msg.value;\r\n        c.numFunders += 1;\r\n\r\n        funders[campaignId].push(Funder({addr: msg.sender, amount: msg.value}));\r\n\r\n        isPartcipate[campaignId][msg.sender] = true;\r\n    }\r\n\r\n    function getTotalAmount(\r\n        uint campaignId\r\n    ) external view returns (uint amount) {\r\n        Campaign storage c = campaigns[campaignId];\r\n        amount = c.totalAmount;\r\n    }\r\n\r\n    function withdraw(uint campaignId) external returns (bool reached) {\r\n        Campaign storage c = campaigns[campaignId];\r\n\r\n        if (c.totalAmount < c.fundingGoal) {\r\n            return false;\r\n        }\r\n\r\n        uint amount = c.totalAmount;\r\n        c.totalAmount = 0;\r\n        c.receiver.transfer(amount);\r\n\r\n        return true;\r\n    }\r\n}\r\n",
  "sourcePath": "E:\\git_2023\\tintin-lesson-4\\contracts\\CrowdFunding.sol",
  "compiler": {
    "name": "solc",
    "version": "0.8.19+commit.7dd6d404.Emscripten.clang"
  },
  "schemaVersion": "3.4.13",
  "updatedAt": "2023-04-06T09:14:56.327Z",
  "devdoc": {
    "kind": "dev",
    "methods": {},
    "version": 1
  },
  "userdoc": {
    "kind": "user",
    "methods": {},
    "version": 1
  }
}