{
  "contractName": "CrowdFundingLesson5",
  "abi": [
    {
      "inputs": [],
      "stateMutability": "nonpayable",
      "type": "constructor"
    },
    {
      "anonymous": false,
      "inputs": [
        {
          "indexed": false,
          "internalType": "uint256",
          "name": "campaignId",
          "type": "uint256"
        },
        {
          "indexed": false,
          "internalType": "address",
          "name": "receiver",
          "type": "address"
        },
        {
          "indexed": false,
          "internalType": "uint256",
          "name": "goal",
          "type": "uint256"
        }
      ],
      "name": "CampaignLog",
      "type": "event"
    },
    {
      "inputs": [
        {
          "internalType": "uint256",
          "name": "",
          "type": "uint256"
        }
      ],
      "name": "campaignsArray",
      "outputs": [
        {
          "internalType": "address payable",
          "name": "receiver",
          "type": "address"
        },
        {
          "internalType": "uint256",
          "name": "numFunders",
          "type": "uint256"
        },
        {
          "internalType": "uint256",
          "name": "fundingGoal",
          "type": "uint256"
        },
        {
          "internalType": "uint256",
          "name": "totalAmount",
          "type": "uint256"
        }
      ],
      "stateMutability": "view",
      "type": "function",
      "constant": true
    },
    {
      "inputs": [
        {
          "internalType": "uint256",
          "name": "",
          "type": "uint256"
        },
        {
          "internalType": "address",
          "name": "",
          "type": "address"
        }
      ],
      "name": "isPartcipate",
      "outputs": [
        {
          "internalType": "bool",
          "name": "",
          "type": "bool"
        }
      ],
      "stateMutability": "view",
      "type": "function",
      "constant": true
    },
    {
      "inputs": [],
      "name": "numCampaigns",
      "outputs": [
        {
          "internalType": "uint256",
          "name": "",
          "type": "uint256"
        }
      ],
      "stateMutability": "view",
      "type": "function",
      "constant": true
    },
    {
      "inputs": [
        {
          "internalType": "address payable",
          "name": "receiver",
          "type": "address"
        },
        {
          "internalType": "uint256",
          "name": "goal",
          "type": "uint256"
        }
      ],
      "name": "newCampaign",
      "outputs": [
        {
          "internalType": "uint256",
          "name": "campaignId",
          "type": "uint256"
        }
      ],
      "stateMutability": "nonpayable",
      "type": "function"
    },
    {
      "inputs": [
        {
          "internalType": "uint256",
          "name": "campaignId",
          "type": "uint256"
        }
      ],
      "name": "bid",
      "outputs": [],
      "stateMutability": "payable",
      "type": "function",
      "payable": true
    },
    {
      "inputs": [
        {
          "internalType": "uint256",
          "name": "campaignId",
          "type": "uint256"
        }
      ],
      "name": "getTotalAmount",
      "outputs": [
        {
          "internalType": "uint256",
          "name": "amount",
          "type": "uint256"
        }
      ],
      "stateMutability": "view",
      "type": "function",
      "constant": true
    },
    {
      "inputs": [
        {
          "internalType": "uint256",
          "name": "campaignId",
          "type": "uint256"
        }
      ],
      "name": "withdraw",
      "outputs": [
        {
          "internalType": "bool",
          "name": "reached",
          "type": "bool"
        }
      ],
      "stateMutability": "nonpayable",
      "type": "function"
    }
  ],
  "bytecode": "0x60a060405234801561001057600080fd5b50336080526080516105f2610030600039600061036d01526105f26000f3fe6080604052600436106100705760003560e01c80636780b75a1161004e5780636780b75a146100e3578063f0e406621461012d578063f7572cf31461015d578063fc6da6a41461017d57600080fd5b80632c0f7b6f146100755780632e1a7d4d1461009e578063454a2ab3146100ce575b600080fd5b34801561008157600080fd5b5061008b60005481565b6040519081526020015b60405180910390f35b3480156100aa57600080fd5b506100be6100b93660046104e7565b6101b8565b6040519015158152602001610095565b6100e16100dc3660046104e7565b610230565b005b3480156100ef57600080fd5b506101036100fe3660046104e7565b61031c565b604080516001600160a01b0390951685526020850193909352918301526060820152608001610095565b34801561013957600080fd5b5061008b6101483660046104e7565b60009081526001602052604090206003015490565b34801561016957600080fd5b5061008b610178366004610518565b610360565b34801561018957600080fd5b506100be610198366004610544565b600360209081526000928352604080842090915290825290205460ff1681565b60008181526001602052604081206002810154600382015410156101df5750600092915050565b600381018054600091829055825460405191926001600160a01b039091169183156108fc0291849190818181858888f19350505050158015610225573d6000803e3d6000fd5b506001949350505050565b6000818152600360209081526040808320338452909152902054819060ff161561025957600080fd5b60008281526001602052604081206003810180549192349261027c90849061058a565b90915550506001818101805460009061029690849061058a565b90915550505060008281526002602081815260408084208151808301835233808252348286019081528354600180820186559489528689209351970290920180546001600160a01b0319166001600160a01b03909716969096178655905194820194909455958452600382528084209284529190529020805460ff191690921790915550565b6004818154811061032c57600080fd5b600091825260209091206004909102018054600182015460028301546003909301546001600160a01b039092169350919084565b6000336001600160a01b037f0000000000000000000000000000000000000000000000000000000000000000161461039757600080fd5b6000805490806103a6836105a3565b90915550600081815260016020818152604080842080546001600160a01b038a81166001600160a01b031992831681178455600284018b815560048054808a01825599819052855499027f8a35acfbc15ff81a39ae7d344fd709f28e8600b4aa8c65c6b64bfe7fe36bd19b810180549095169990931698909817909255948201547f8a35acfbc15ff81a39ae7d344fd709f28e8600b4aa8c65c6b64bfe7fe36bd19c86015594547f8a35acfbc15ff81a39ae7d344fd709f28e8600b4aa8c65c6b64bfe7fe36bd19d85015560038101547f8a35acfbc15ff81a39ae7d344fd709f28e8600b4aa8c65c6b64bfe7fe36bd19e909401939093558051858152918201939093529182018590529192507fd5979c3bd81a7e1a390fc8030ec1389d2ef3309f57e15ff428366366c5fa226c9060600160405180910390a15092915050565b6000602082840312156104f957600080fd5b5035919050565b6001600160a01b038116811461051557600080fd5b50565b6000806040838503121561052b57600080fd5b823561053681610500565b946020939093013593505050565b6000806040838503121561055757600080fd5b82359150602083013561056981610500565b809150509250929050565b634e487b7160e01b600052601160045260246000fd5b8082018082111561059d5761059d610574565b92915050565b6000600182016105b5576105b5610574565b506001019056fea2646970667358221220050744fc2d9bd30d7ba05bc1d348d57b2df08274393741f5d50b7ca8cae4578964736f6c63430008130033",
  "immutableReferences": {
    "1197": [
      {
        "length": 32,
        "start": 877
      }
    ]
  },
  "source": "// SPDX-License-Identifier: GPL-3.0\r\n\r\npragma solidity =0.8.19;\r\n\r\ncontract CrowdFundingStorage {\r\n  struct Campaign {\r\n    address payable receiver;\r\n    uint numFunders;\r\n    uint fundingGoal;\r\n    uint totalAmount;\r\n  }\r\n\r\n  struct Funder {\r\n    address addr;\r\n    uint amount;\r\n  }\r\n\r\n  uint public numCampaigns;\r\n  mapping(uint => Campaign) campaigns;\r\n  mapping(uint => Funder[]) funders;\r\n\r\n  mapping(uint => mapping(address => bool)) public isPartcipate;\r\n\r\n  Campaign[] public campaignsArray;\r\n\r\n  modifier judgeParticipate(uint campaignId) {\r\n    require(isPartcipate[campaignId][msg.sender] == false);\r\n    _;\r\n  }\r\n}\r\n\r\ncontract CrowdFundingLesson5 is CrowdFundingStorage {\r\n  address immutable owner;\r\n\r\n  event CampaignLog(uint campaignId, address receiver, uint goal);\r\n\r\n  constructor() {\r\n    owner = msg.sender;\r\n  }\r\n\r\n  modifier isOwner() {\r\n    require(msg.sender == owner);\r\n    _;\r\n  }\r\n\r\n  function newCampaign(address payable receiver, uint goal) external isOwner returns (uint campaignId) {\r\n    campaignId = numCampaigns++;\r\n    Campaign storage c = campaigns[campaignId];\r\n    c.receiver = receiver;\r\n    c.fundingGoal = goal;\r\n\r\n    campaignsArray.push(c);\r\n    emit CampaignLog(campaignId, receiver, goal);\r\n  }\r\n\r\n  function bid(uint campaignId) external payable judgeParticipate(campaignId) {\r\n    Campaign storage c = campaigns[campaignId];\r\n\r\n    c.totalAmount += msg.value;\r\n    c.numFunders += 1;\r\n\r\n    funders[campaignId].push(Funder({addr: msg.sender, amount: msg.value}));\r\n\r\n    isPartcipate[campaignId][msg.sender] = true;\r\n  }\r\n\r\n  function getTotalAmount(uint campaignId) external view returns (uint amount) {\r\n    Campaign storage c = campaigns[campaignId];\r\n    amount = c.totalAmount;\r\n  }\r\n\r\n  function withdraw(uint campaignId) external returns (bool reached) {\r\n    Campaign storage c = campaigns[campaignId];\r\n\r\n    if (c.totalAmount < c.fundingGoal) {\r\n      return false;\r\n    }\r\n\r\n    uint amount = c.totalAmount;\r\n    c.totalAmount = 0;\r\n    c.receiver.transfer(amount);\r\n\r\n    return true;\r\n  }\r\n}\r\n",
  "sourcePath": "E:\\git_2023\\tintin-lesson-4\\contracts\\CrowdFundingLesson5.sol",
  "compiler": {
    "name": "solc",
    "version": "0.8.19+commit.7dd6d404.Emscripten.clang"
  },
  "schemaVersion": "3.4.13",
  "updatedAt": "2023-04-13T09:57:36.174Z",
  "networkType": "ethereum",
  "devdoc": {
    "kind": "dev",
    "methods": {},
    "version": 1
  },
  "userdoc": {
    "kind": "user",
    "methods": {},
    "version": 1
  }
}