{
  "contractName": "CrowdFundingStorage",
  "abi": [
    {
      "inputs": [
        {
          "internalType": "uint256",
          "name": "",
          "type": "uint256"
        }
      ],
      "name": "campaignsArray",
      "outputs": [
        {
          "internalType": "address payable",
          "name": "receiver",
          "type": "address"
        },
        {
          "internalType": "uint256",
          "name": "numFunders",
          "type": "uint256"
        },
        {
          "internalType": "uint256",
          "name": "fundingGoal",
          "type": "uint256"
        },
        {
          "internalType": "uint256",
          "name": "totalAmount",
          "type": "uint256"
        }
      ],
      "stateMutability": "view",
      "type": "function"
    },
    {
      "inputs": [
        {
          "internalType": "uint256",
          "name": "",
          "type": "uint256"
        },
        {
          "internalType": "address",
          "name": "",
          "type": "address"
        }
      ],
      "name": "isPartcipate",
      "outputs": [
        {
          "internalType": "bool",
          "name": "",
          "type": "bool"
        }
      ],
      "stateMutability": "view",
      "type": "function"
    },
    {
      "inputs": [],
      "name": "numCampaigns",
      "outputs": [
        {
          "internalType": "uint256",
          "name": "",
          "type": "uint256"
        }
      ],
      "stateMutability": "view",
      "type": "function"
    }
  ],
  "bytecode": "0x608060405234801561001057600080fd5b506101ac806100206000396000f3fe608060405234801561001057600080fd5b50600436106100415760003560e01c80632c0f7b6f146100465780636780b75a14610062578063fc6da6a41461009f575b600080fd5b61004f60005481565b6040519081526020015b60405180910390f35b610075610070366004610121565b6100dd565b604080516001600160a01b0390951685526020850193909352918301526060820152608001610059565b6100cd6100ad36600461013a565b600360209081526000928352604080842090915290825290205460ff1681565b6040519015158152602001610059565b600481815481106100ed57600080fd5b600091825260209091206004909102018054600182015460028301546003909301546001600160a01b039092169350919084565b60006020828403121561013357600080fd5b5035919050565b6000806040838503121561014d57600080fd5b8235915060208301356001600160a01b038116811461016b57600080fd5b80915050925092905056fea2646970667358221220dd917a26365ca77cd58c266379439ddc82d5e0d726782a37dc267aa1ba295caf64736f6c63430008130033",
  "immutableReferences": {},
  "source": "// SPDX-License-Identifier: GPL-3.0\r\n\r\npragma solidity =0.8.19;\r\n\r\ncontract CrowdFundingStorage {\r\n  struct Campaign {\r\n    address payable receiver;\r\n    uint numFunders;\r\n    uint fundingGoal;\r\n    uint totalAmount;\r\n  }\r\n\r\n  struct Funder {\r\n    address addr;\r\n    uint amount;\r\n  }\r\n\r\n  uint public numCampaigns;\r\n  mapping(uint => Campaign) campaigns;\r\n  mapping(uint => Funder[]) funders;\r\n\r\n  mapping(uint => mapping(address => bool)) public isPartcipate;\r\n\r\n  Campaign[] public campaignsArray;\r\n\r\n  modifier judgeParticipate(uint campaignId) {\r\n    require(isPartcipate[campaignId][msg.sender] == false);\r\n    _;\r\n  }\r\n}\r\n\r\ncontract CrowdFundingLesson5Homework is CrowdFundingStorage {\r\n  address immutable owner;\r\n\r\n  event CampaignLog(uint campaignId, address receiver, uint goal);\r\n  event CampaignBidLog(uint campaignId, address sender, uint amount);\r\n\r\n  constructor() {\r\n    owner = msg.sender;\r\n  }\r\n\r\n  modifier isOwner() {\r\n    require(msg.sender == owner);\r\n    _;\r\n  }\r\n\r\n  function newCampaign(address payable receiver, uint goal) external isOwner returns (uint campaignId) {\r\n    campaignId = numCampaigns++;\r\n    Campaign storage c = campaigns[campaignId];\r\n    c.receiver = receiver;\r\n    c.fundingGoal = goal;\r\n\r\n    campaignsArray.push(c);\r\n    emit CampaignLog(campaignId, receiver, goal);\r\n  }\r\n\r\n  function bid(uint campaignId) external payable judgeParticipate(campaignId) {\r\n    Campaign storage c = campaigns[campaignId];\r\n\r\n    c.totalAmount += msg.value;\r\n    c.numFunders += 1;\r\n\r\n    funders[campaignId].push(Funder({addr: msg.sender, amount: msg.value}));\r\n\r\n    isPartcipate[campaignId][msg.sender] = true;\r\n    emit CampaignBidLog(campaignId, msg.sender, msg.value);\r\n  }\r\n\r\n  function getTotalAmount(uint campaignId) external view returns (uint amount) {\r\n    Campaign storage c = campaigns[campaignId];\r\n    amount = c.totalAmount;\r\n  }\r\n\r\n  function withdraw(uint campaignId) external returns (bool reached) {\r\n    Campaign storage c = campaigns[campaignId];\r\n\r\n    if (c.totalAmount < c.fundingGoal) {\r\n      return false;\r\n    }\r\n\r\n    uint amount = c.totalAmount;\r\n    c.totalAmount = 0;\r\n    c.receiver.transfer(amount);\r\n\r\n    return true;\r\n  }\r\n}\r\n",
  "sourcePath": "E:\\git_2023\\tintin-lesson-4\\contracts\\CrowdFundingLesson5Homework.sol",
  "compiler": {
    "name": "solc",
    "version": "0.8.19+commit.7dd6d404.Emscripten.clang"
  },
  "schemaVersion": "3.4.13",
  "updatedAt": "2023-04-20T11:42:26.739Z",
  "devdoc": {
    "kind": "dev",
    "methods": {},
    "version": 1
  },
  "userdoc": {
    "kind": "user",
    "methods": {},
    "version": 1
  }
}