{
  "contractName": "CrowdFunding",
  "abi": [
    {
      "inputs": [],
      "stateMutability": "nonpayable",
      "type": "constructor"
    },
    {
      "inputs": [
        {
          "internalType": "uint256",
          "name": "",
          "type": "uint256"
        },
        {
          "internalType": "address",
          "name": "",
          "type": "address"
        }
      ],
      "name": "isPartcipate",
      "outputs": [
        {
          "internalType": "bool",
          "name": "",
          "type": "bool"
        }
      ],
      "stateMutability": "view",
      "type": "function"
    },
    {
      "inputs": [],
      "name": "numCampaigns",
      "outputs": [
        {
          "internalType": "uint256",
          "name": "",
          "type": "uint256"
        }
      ],
      "stateMutability": "view",
      "type": "function"
    },
    {
      "inputs": [
        {
          "internalType": "address payable",
          "name": "receiver",
          "type": "address"
        },
        {
          "internalType": "uint256",
          "name": "goal",
          "type": "uint256"
        }
      ],
      "name": "newCampaign",
      "outputs": [
        {
          "internalType": "uint256",
          "name": "campaignId",
          "type": "uint256"
        }
      ],
      "stateMutability": "nonpayable",
      "type": "function"
    },
    {
      "inputs": [
        {
          "internalType": "uint256",
          "name": "campaignId",
          "type": "uint256"
        }
      ],
      "name": "bid",
      "outputs": [],
      "stateMutability": "payable",
      "type": "function"
    },
    {
      "inputs": [
        {
          "internalType": "uint256",
          "name": "campaignId",
          "type": "uint256"
        }
      ],
      "name": "getTotalAmount",
      "outputs": [
        {
          "internalType": "uint256",
          "name": "amount",
          "type": "uint256"
        }
      ],
      "stateMutability": "view",
      "type": "function"
    },
    {
      "inputs": [
        {
          "internalType": "uint256",
          "name": "campaignId",
          "type": "uint256"
        }
      ],
      "name": "withdraw",
      "outputs": [
        {
          "internalType": "bool",
          "name": "reached",
          "type": "bool"
        }
      ],
      "stateMutability": "nonpayable",
      "type": "function"
    }
  ],
  "bytecode": "0x60a060405234801561001057600080fd5b503360805260805161044561003060003960006102c401526104456000f3fe6080604052600436106100555760003560e01c80632c0f7b6f1461005a5780632e1a7d4d14610083578063454a2ab3146100b3578063f0e40662146100c8578063f7572cf3146100f8578063fc6da6a414610118575b600080fd5b34801561006657600080fd5b5061007060005481565b6040519081526020015b60405180910390f35b34801561008f57600080fd5b506100a361009e36600461033a565b610153565b604051901515815260200161007a565b6100c66100c136600461033a565b6101cb565b005b3480156100d457600080fd5b506100706100e336600461033a565b60009081526001602052604090206003015490565b34801561010457600080fd5b5061007061011336600461036b565b6102b7565b34801561012457600080fd5b506100a3610133366004610397565b600360209081526000928352604080842090915290825290205460ff1681565b600081815260016020526040812060028101546003820154101561017a5750600092915050565b600381018054600091829055825460405191926001600160a01b039091169183156108fc0291849190818181858888f193505050501580156101c0573d6000803e3d6000fd5b506001949350505050565b6000818152600360209081526040808320338452909152902054819060ff16156101f457600080fd5b6000828152600160205260408120600381018054919234926102179084906103dd565b9091555050600181810180546000906102319084906103dd565b90915550505060008281526002602081815260408084208151808301835233808252348286019081528354600180820186559489528689209351970290920180546001600160a01b0319166001600160a01b03909716969096178655905194820194909455958452600382528084209284529190529020805460ff191690921790915550565b6000336001600160a01b037f000000000000000000000000000000000000000000000000000000000000000016146102ee57600080fd5b6000805490806102fd836103f6565b90915550600081815260016020526040902080546001600160a01b0319166001600160a01b03959095169490941784556002909301919091555090565b60006020828403121561034c57600080fd5b5035919050565b6001600160a01b038116811461036857600080fd5b50565b6000806040838503121561037e57600080fd5b823561038981610353565b946020939093013593505050565b600080604083850312156103aa57600080fd5b8235915060208301356103bc81610353565b809150509250929050565b634e487b7160e01b600052601160045260246000fd5b808201808211156103f0576103f06103c7565b92915050565b600060018201610408576104086103c7565b506001019056fea264697066735822122032190e56460d570ab6e12a7b03bdc4d607de3f7d5dbb6fa0453671d4ecc6330d64736f6c63430008130033",
  "immutableReferences": {
    "56": [
      {
        "length": 32,
        "start": 708
      }
    ]
  },
  "source": "/**\r\n *Submitted for verification at polygonscan.com on 2023-03-28\r\n */\r\n\r\n// SPDX-License-Identifier: GPL-3.0\r\n\r\npragma solidity =0.8.19;\r\n\r\ncontract CrowdFundingStorage {\r\n    struct Campaign {\r\n        address payable receiver;\r\n        uint numFunders;\r\n        uint fundingGoal;\r\n        uint totalAmount;\r\n    }\r\n\r\n    struct Funder {\r\n        address addr;\r\n        uint amount;\r\n    }\r\n\r\n    uint public numCampaigns;\r\n    mapping(uint => Campaign) campaigns;\r\n    mapping(uint => Funder[]) funders;\r\n\r\n    mapping(uint => mapping(address => bool)) public isPartcipate;\r\n\r\n    modifier judgeParticipate(uint campaignId) {\r\n        require(isPartcipate[campaignId][msg.sender] == false);\r\n        _;\r\n    }\r\n}\r\n\r\ncontract CrowdFunding is CrowdFundingStorage {\r\n    address immutable owner;\r\n\r\n    constructor() {\r\n        owner = msg.sender;\r\n    }\r\n\r\n    modifier isOwner() {\r\n        require(msg.sender == owner);\r\n        _;\r\n    }\r\n\r\n    function newCampaign(\r\n        address payable receiver,\r\n        uint goal\r\n    ) external isOwner returns (uint campaignId) {\r\n        campaignId = numCampaigns++;\r\n        Campaign storage c = campaigns[campaignId];\r\n        c.receiver = receiver;\r\n        c.fundingGoal = goal;\r\n    }\r\n\r\n    function bid(\r\n        uint campaignId\r\n    ) external payable judgeParticipate(campaignId) {\r\n        Campaign storage c = campaigns[campaignId];\r\n\r\n        c.totalAmount += msg.value;\r\n        c.numFunders += 1;\r\n\r\n        funders[campaignId].push(Funder({addr: msg.sender, amount: msg.value}));\r\n\r\n        isPartcipate[campaignId][msg.sender] = true;\r\n    }\r\n\r\n    function getTotalAmount(\r\n        uint campaignId\r\n    ) external view returns (uint amount) {\r\n        Campaign storage c = campaigns[campaignId];\r\n        amount = c.totalAmount;\r\n    }\r\n\r\n    function withdraw(uint campaignId) external returns (bool reached) {\r\n        Campaign storage c = campaigns[campaignId];\r\n\r\n        if (c.totalAmount < c.fundingGoal) {\r\n            return false;\r\n        }\r\n\r\n        uint amount = c.totalAmount;\r\n        c.totalAmount = 0;\r\n        c.receiver.transfer(amount);\r\n\r\n        return true;\r\n    }\r\n}\r\n",
  "sourcePath": "E:\\git_2023\\tintin-lesson-4\\contracts\\CrowdFunding.sol",
  "compiler": {
    "name": "solc",
    "version": "0.8.19+commit.7dd6d404.Emscripten.clang"
  },
  "schemaVersion": "3.4.13",
  "updatedAt": "2023-04-06T09:14:56.322Z",
  "devdoc": {
    "kind": "dev",
    "methods": {},
    "version": 1
  },
  "userdoc": {
    "kind": "user",
    "methods": {},
    "version": 1
  }
}