{
  "contractName": "Lesson4ERC20",
  "abi": [
    {
      "inputs": [
        {
          "internalType": "string",
          "name": "_name",
          "type": "string"
        },
        {
          "internalType": "string",
          "name": "_symbol",
          "type": "string"
        }
      ],
      "stateMutability": "nonpayable",
      "type": "constructor"
    },
    {
      "anonymous": false,
      "inputs": [
        {
          "indexed": true,
          "internalType": "address",
          "name": "owner",
          "type": "address"
        },
        {
          "indexed": true,
          "internalType": "address",
          "name": "spender",
          "type": "address"
        },
        {
          "indexed": false,
          "internalType": "uint256",
          "name": "value",
          "type": "uint256"
        }
      ],
      "name": "Approval",
      "type": "event"
    },
    {
      "anonymous": false,
      "inputs": [
        {
          "indexed": true,
          "internalType": "address",
          "name": "previousOwner",
          "type": "address"
        },
        {
          "indexed": true,
          "internalType": "address",
          "name": "newOwner",
          "type": "address"
        }
      ],
      "name": "OwnershipTransferred",
      "type": "event"
    },
    {
      "anonymous": false,
      "inputs": [
        {
          "indexed": true,
          "internalType": "address",
          "name": "from",
          "type": "address"
        },
        {
          "indexed": true,
          "internalType": "address",
          "name": "to",
          "type": "address"
        },
        {
          "indexed": false,
          "internalType": "uint256",
          "name": "value",
          "type": "uint256"
        }
      ],
      "name": "Transfer",
      "type": "event"
    },
    {
      "inputs": [
        {
          "internalType": "address",
          "name": "owner",
          "type": "address"
        },
        {
          "internalType": "address",
          "name": "spender",
          "type": "address"
        }
      ],
      "name": "allowance",
      "outputs": [
        {
          "internalType": "uint256",
          "name": "",
          "type": "uint256"
        }
      ],
      "stateMutability": "view",
      "type": "function"
    },
    {
      "inputs": [
        {
          "internalType": "address",
          "name": "spender",
          "type": "address"
        },
        {
          "internalType": "uint256",
          "name": "amount",
          "type": "uint256"
        }
      ],
      "name": "approve",
      "outputs": [
        {
          "internalType": "bool",
          "name": "",
          "type": "bool"
        }
      ],
      "stateMutability": "nonpayable",
      "type": "function"
    },
    {
      "inputs": [
        {
          "internalType": "address",
          "name": "account",
          "type": "address"
        }
      ],
      "name": "balanceOf",
      "outputs": [
        {
          "internalType": "uint256",
          "name": "",
          "type": "uint256"
        }
      ],
      "stateMutability": "view",
      "type": "function"
    },
    {
      "inputs": [],
      "name": "burnRatio",
      "outputs": [
        {
          "internalType": "uint256",
          "name": "",
          "type": "uint256"
        }
      ],
      "stateMutability": "view",
      "type": "function"
    },
    {
      "inputs": [],
      "name": "decimals",
      "outputs": [
        {
          "internalType": "uint8",
          "name": "",
          "type": "uint8"
        }
      ],
      "stateMutability": "view",
      "type": "function"
    },
    {
      "inputs": [
        {
          "internalType": "address",
          "name": "spender",
          "type": "address"
        },
        {
          "internalType": "uint256",
          "name": "subtractedValue",
          "type": "uint256"
        }
      ],
      "name": "decreaseAllowance",
      "outputs": [
        {
          "internalType": "bool",
          "name": "",
          "type": "bool"
        }
      ],
      "stateMutability": "nonpayable",
      "type": "function"
    },
    {
      "inputs": [],
      "name": "feeAccount",
      "outputs": [
        {
          "internalType": "address",
          "name": "",
          "type": "address"
        }
      ],
      "stateMutability": "view",
      "type": "function"
    },
    {
      "inputs": [
        {
          "internalType": "address",
          "name": "spender",
          "type": "address"
        },
        {
          "internalType": "uint256",
          "name": "addedValue",
          "type": "uint256"
        }
      ],
      "name": "increaseAllowance",
      "outputs": [
        {
          "internalType": "bool",
          "name": "",
          "type": "bool"
        }
      ],
      "stateMutability": "nonpayable",
      "type": "function"
    },
    {
      "inputs": [],
      "name": "name",
      "outputs": [
        {
          "internalType": "string",
          "name": "",
          "type": "string"
        }
      ],
      "stateMutability": "view",
      "type": "function"
    },
    {
      "inputs": [],
      "name": "owner",
      "outputs": [
        {
          "internalType": "address",
          "name": "",
          "type": "address"
        }
      ],
      "stateMutability": "view",
      "type": "function"
    },
    {
      "inputs": [],
      "name": "renounceOwnership",
      "outputs": [],
      "stateMutability": "nonpayable",
      "type": "function"
    },
    {
      "inputs": [],
      "name": "symbol",
      "outputs": [
        {
          "internalType": "string",
          "name": "",
          "type": "string"
        }
      ],
      "stateMutability": "view",
      "type": "function"
    },
    {
      "inputs": [],
      "name": "totalSupply",
      "outputs": [
        {
          "internalType": "uint256",
          "name": "",
          "type": "uint256"
        }
      ],
      "stateMutability": "view",
      "type": "function"
    },
    {
      "inputs": [
        {
          "internalType": "address",
          "name": "to",
          "type": "address"
        },
        {
          "internalType": "uint256",
          "name": "amount",
          "type": "uint256"
        }
      ],
      "name": "transfer",
      "outputs": [
        {
          "internalType": "bool",
          "name": "",
          "type": "bool"
        }
      ],
      "stateMutability": "nonpayable",
      "type": "function"
    },
    {
      "inputs": [
        {
          "internalType": "address",
          "name": "newOwner",
          "type": "address"
        }
      ],
      "name": "transferOwnership",
      "outputs": [],
      "stateMutability": "nonpayable",
      "type": "function"
    },
    {
      "inputs": [],
      "name": "txFeeRatio",
      "outputs": [
        {
          "internalType": "uint256",
          "name": "",
          "type": "uint256"
        }
      ],
      "stateMutability": "view",
      "type": "function"
    },
    {
      "inputs": [
        {
          "internalType": "address",
          "name": "account",
          "type": "address"
        },
        {
          "internalType": "uint256",
          "name": "amount",
          "type": "uint256"
        }
      ],
      "name": "mint",
      "outputs": [],
      "stateMutability": "nonpayable",
      "type": "function"
    },
    {
      "inputs": [
        {
          "internalType": "address",
          "name": "to",
          "type": "address"
        },
        {
          "internalType": "uint256",
          "name": "amount",
          "type": "uint256"
        }
      ],
      "name": "transferFrom",
      "outputs": [
        {
          "internalType": "bool",
          "name": "",
          "type": "bool"
        }
      ],
      "stateMutability": "nonpayable",
      "type": "function"
    },
    {
      "inputs": [
        {
          "internalType": "address",
          "name": "from",
          "type": "address"
        },
        {
          "internalType": "address",
          "name": "to",
          "type": "address"
        },
        {
          "internalType": "uint256",
          "name": "amount",
          "type": "uint256"
        }
      ],
      "name": "transferFrom",
      "outputs": [
        {
          "internalType": "bool",
          "name": "",
          "type": "bool"
        }
      ],
      "stateMutability": "nonpayable",
      "type": "function"
    },
    {
      "inputs": [
        {
          "internalType": "address",
          "name": "_feeAccount",
          "type": "address"
        },
        {
          "internalType": "uint256",
          "name": "_txFeeRatio",
          "type": "uint256"
        },
        {
          "internalType": "uint256",
          "name": "_burnRatio",
          "type": "uint256"
        }
      ],
      "name": "setProjectAddress",
      "outputs": [],
      "stateMutability": "nonpayable",
      "type": "function"
    }
  ],
  "bytecode": "0x60a06040523480156200001157600080fd5b50604051620011cc380380620011cc8339810160408190526200003491620001b6565b81816003620000448382620002af565b506004620000538282620002af565b505050620000706200006a6200009b60201b60201c565b6200009f565b5050336080819052600680546001600160a01b0319169091179055600160078190556008556200037b565b3390565b600580546001600160a01b038381166001600160a01b0319831681179093556040519116919082907f8be0079c531659141344cd1fd0a4f28419497f9722a3daafe3b4186f6b6457e090600090a35050565b634e487b7160e01b600052604160045260246000fd5b600082601f8301126200011957600080fd5b81516001600160401b0380821115620001365762000136620000f1565b604051601f8301601f19908116603f01168101908282118183101715620001615762000161620000f1565b816040528381526020925086838588010111156200017e57600080fd5b600091505b83821015620001a2578582018301518183018401529082019062000183565b600093810190920192909252949350505050565b60008060408385031215620001ca57600080fd5b82516001600160401b0380821115620001e257600080fd5b620001f08683870162000107565b935060208501519150808211156200020757600080fd5b50620002168582860162000107565b9150509250929050565b600181811c908216806200023557607f821691505b6020821081036200025657634e487b7160e01b600052602260045260246000fd5b50919050565b601f821115620002aa57600081815260208120601f850160051c81016020861015620002855750805b601f850160051c820191505b81811015620002a65782815560010162000291565b5050505b505050565b81516001600160401b03811115620002cb57620002cb620000f1565b620002e381620002dc845462000220565b846200025c565b602080601f8311600181146200031b5760008415620003025750858301515b600019600386901b1c1916600185901b178555620002a6565b600085815260208120601f198616915b828110156200034c578886015182559484019460019091019084016200032b565b50858210156200036b5787850151600019600388901b60f8161c191681555b5050505050600190811b01905550565b608051610e386200039460003960005050610e386000f3fe608060405234801561001057600080fd5b506004361061012c5760003560e01c806370a08231116100ad578063a9059cbb11610071578063a9059cbb1461026e578063d06ccfcd14610281578063d4e398c914610294578063dd62ed3e1461029d578063f2fde38b146102b057600080fd5b806370a0823114610211578063715018a61461023a5780638da5cb5b1461024257806395d89b4114610253578063a457c2d71461025b57600080fd5b8063313ce567116100f4578063313ce567146101a657806339509351146101b557806340c10f19146101c85780635192c82c146101dd57806365e17c9d146101e657600080fd5b806301c6adc31461013157806306fdde0314610159578063095ea7b31461016e57806318160ddd1461018157806323b872dd14610193575b600080fd5b61014461013f366004610c1e565b6102c3565b60405190151581526020015b60405180910390f35b610161610373565b6040516101509190610c48565b61014461017c366004610c1e565b610405565b6002545b604051908152602001610150565b6101446101a1366004610c96565b61041d565b60405160128152602001610150565b6101446101c3366004610c1e565b610441565b6101db6101d6366004610c1e565b610463565b005b61018560085481565b6006546101f9906001600160a01b031681565b6040516001600160a01b039091168152602001610150565b61018561021f366004610cd2565b6001600160a01b031660009081526020819052604090205490565b6101db610479565b6005546001600160a01b03166101f9565b61016161048d565b610144610269366004610c1e565b61049c565b61014461027c366004610c1e565b61051c565b6101db61028f366004610ced565b61052a565b61018560075481565b6101856102ab366004610d20565b61055b565b6101db6102be366004610cd2565b610586565b60006102d03333846105ff565b60006102f36103e86102ed6007548661067990919063ffffffff16565b9061068c565b905060006103126103e86102ed6008548761067990919063ffffffff16565b9050600061032a826103248786610698565b90610698565b90506103373387836106a4565b8215610355576006546103559033906001600160a01b0316856106a4565b8115610365576103653383610848565b600193505050505b92915050565b60606003805461038290610d53565b80601f01602080910402602001604051908101604052809291908181526020018280546103ae90610d53565b80156103fb5780601f106103d0576101008083540402835291602001916103fb565b820191906000526020600020905b8154815290600101906020018083116103de57829003601f168201915b5050505050905090565b60003361041381858561097b565b5060019392505050565b60003361042b8582856105ff565b6104368585856106a4565b506001949350505050565b600033610413818585610454838361055b565b61045e9190610da3565b61097b565b61046b610a97565b6104758282610af1565b5050565b610481610a97565b61048b6000610bb0565b565b60606004805461038290610d53565b600033816104aa828661055b565b90508381101561050f5760405162461bcd60e51b815260206004820152602560248201527f45524332303a2064656372656173656420616c6c6f77616e63652062656c6f77604482015264207a65726f60d81b60648201526084015b60405180910390fd5b610436828686840361097b565b6000336104138185856106a4565b610532610a97565b600680546001600160a01b0319166001600160a01b039490941693909317909255600755600855565b6001600160a01b03918216600090815260016020908152604080832093909416825291909152205490565b61058e610a97565b6001600160a01b0381166105f35760405162461bcd60e51b815260206004820152602660248201527f4f776e61626c653a206e6577206f776e657220697320746865207a65726f206160448201526564647265737360d01b6064820152608401610506565b6105fc81610bb0565b50565b600061060b848461055b565b9050600019811461067357818110156106665760405162461bcd60e51b815260206004820152601d60248201527f45524332303a20696e73756666696369656e7420616c6c6f77616e63650000006044820152606401610506565b610673848484840361097b565b50505050565b60006106858284610db6565b9392505050565b60006106858284610dcd565b60006106858284610def565b6001600160a01b0383166107085760405162461bcd60e51b815260206004820152602560248201527f45524332303a207472616e736665722066726f6d20746865207a65726f206164604482015264647265737360d81b6064820152608401610506565b6001600160a01b03821661076a5760405162461bcd60e51b815260206004820152602360248201527f45524332303a207472616e7366657220746f20746865207a65726f206164647260448201526265737360e81b6064820152608401610506565b6001600160a01b038316600090815260208190526040902054818110156107e25760405162461bcd60e51b815260206004820152602660248201527f45524332303a207472616e7366657220616d6f756e7420657863656564732062604482015265616c616e636560d01b6064820152608401610506565b6001600160a01b03848116600081815260208181526040808320878703905593871680835291849020805487019055925185815290927fddf252ad1be2c89b69c2b068fc378daa952ba7f163c4a11628f55a4df523b3ef910160405180910390a3610673565b6001600160a01b0382166108a85760405162461bcd60e51b815260206004820152602160248201527f45524332303a206275726e2066726f6d20746865207a65726f206164647265736044820152607360f81b6064820152608401610506565b6001600160a01b0382166000908152602081905260409020548181101561091c5760405162461bcd60e51b815260206004820152602260248201527f45524332303a206275726e20616d6f756e7420657863656564732062616c616e604482015261636560f01b6064820152608401610506565b6001600160a01b0383166000818152602081815260408083208686039055600280548790039055518581529192917fddf252ad1be2c89b69c2b068fc378daa952ba7f163c4a11628f55a4df523b3ef91015b60405180910390a3505050565b6001600160a01b0383166109dd5760405162461bcd60e51b8152602060048201526024808201527f45524332303a20617070726f76652066726f6d20746865207a65726f206164646044820152637265737360e01b6064820152608401610506565b6001600160a01b038216610a3e5760405162461bcd60e51b815260206004820152602260248201527f45524332303a20617070726f766520746f20746865207a65726f206164647265604482015261737360f01b6064820152608401610506565b6001600160a01b0383811660008181526001602090815260408083209487168084529482529182902085905590518481527f8c5be1e5ebec7d5bd14f71427d1e84f3dd0314c0f7b2291e5b200ac8c7c3b925910161096e565b6005546001600160a01b0316331461048b5760405162461bcd60e51b815260206004820181905260248201527f4f776e61626c653a2063616c6c6572206973206e6f7420746865206f776e65726044820152606401610506565b6001600160a01b038216610b475760405162461bcd60e51b815260206004820152601f60248201527f45524332303a206d696e7420746f20746865207a65726f2061646472657373006044820152606401610506565b8060026000828254610b599190610da3565b90915550506001600160a01b038216600081815260208181526040808320805486019055518481527fddf252ad1be2c89b69c2b068fc378daa952ba7f163c4a11628f55a4df523b3ef910160405180910390a35050565b600580546001600160a01b038381166001600160a01b0319831681179093556040519116919082907f8be0079c531659141344cd1fd0a4f28419497f9722a3daafe3b4186f6b6457e090600090a35050565b80356001600160a01b0381168114610c1957600080fd5b919050565b60008060408385031215610c3157600080fd5b610c3a83610c02565b946020939093013593505050565b600060208083528351808285015260005b81811015610c7557858101830151858201604001528201610c59565b506000604082860101526040601f19601f8301168501019250505092915050565b600080600060608486031215610cab57600080fd5b610cb484610c02565b9250610cc260208501610c02565b9150604084013590509250925092565b600060208284031215610ce457600080fd5b61068582610c02565b600080600060608486031215610d0257600080fd5b610d0b84610c02565b95602085013595506040909401359392505050565b60008060408385031215610d3357600080fd5b610d3c83610c02565b9150610d4a60208401610c02565b90509250929050565b600181811c90821680610d6757607f821691505b602082108103610d8757634e487b7160e01b600052602260045260246000fd5b50919050565b634e487b7160e01b600052601160045260246000fd5b8082018082111561036d5761036d610d8d565b808202811582820484141761036d5761036d610d8d565b600082610dea57634e487b7160e01b600052601260045260246000fd5b500490565b8181038181111561036d5761036d610d8d56fea2646970667358221220cd3db3a2035d019c9fab3c22eba3aeafc1d58df39bd9315b8c804fcdf65d65f064736f6c63430008130033",
  "immutableReferences": {},
  "source": "// SPDX-License-Identifier: MIT\r\n\r\nimport '@openzeppelin/contracts/token/ERC20/ERC20.sol';\r\nimport '@openzeppelin/contracts/access/ownable.sol';\r\nimport '@openzeppelin/contracts/utils/math/SafeMath.sol';\r\n\r\npragma solidity 0.8.19;\r\n\r\ncontract Lesson4ERC20 is ERC20, Ownable {\r\n  using SafeMath for uint256;\r\n\r\n  address immutable ownerAccount;\r\n  address public feeAccount;\r\n\r\n  uint256 public txFeeRatio;\r\n  uint256 public burnRatio;\r\n\r\n  constructor(string memory _name, string memory _symbol) ERC20(_name, _symbol) {\r\n    ownerAccount = msg.sender;\r\n    feeAccount = msg.sender;\r\n    txFeeRatio = 1;\r\n    burnRatio = 1;\r\n  }\r\n\r\n  function mint(address account, uint256 amount) external onlyOwner {\r\n    _mint(account, amount);\r\n  }\r\n\r\n  function transferFrom(address to, uint256 amount) public virtual returns (bool) {\r\n    //\r\n    _spendAllowance(msg.sender, msg.sender, amount);\r\n\r\n    //\r\n    uint256 txFee = amount.mul(txFeeRatio).div(1000);\r\n    //\r\n    uint256 burnAmount = amount.mul(burnRatio).div(1000);\r\n    //\r\n    uint256 realAmount = amount.sub(txFee).sub(burnAmount);\r\n\r\n    _transfer(msg.sender, to, realAmount);\r\n    if (txFee > 0) {\r\n      _transfer(msg.sender, feeAccount, txFee);\r\n    }\r\n    if (burnAmount > 0) {\r\n      _burn(msg.sender, burnAmount);\r\n    }\r\n    return true;\r\n  }\r\n\r\n  //\r\n  function setProjectAddress(address _feeAccount, uint256 _txFeeRatio, uint256 _burnRatio) external onlyOwner {\r\n    feeAccount = _feeAccount;\r\n    txFeeRatio = _txFeeRatio;\r\n    burnRatio = _burnRatio;\r\n  }\r\n}\r\n",
  "sourcePath": "E:\\git_2023\\tintin-lesson-4\\contracts\\Lesson4ERC20.sol",
  "compiler": {
    "name": "solc",
    "version": "0.8.19+commit.7dd6d404.Emscripten.clang"
  },
  "schemaVersion": "3.4.13",
  "updatedAt": "2023-04-13T09:56:22.600Z",
  "devdoc": {
    "events": {
      "Approval(address,address,uint256)": {
        "details": "Emitted when the allowance of a `spender` for an `owner` is set by a call to {approve}. `value` is the new allowance."
      },
      "Transfer(address,address,uint256)": {
        "details": "Emitted when `value` tokens are moved from one account (`from`) to another (`to`). Note that `value` may be zero."
      }
    },
    "kind": "dev",
    "methods": {
      "allowance(address,address)": {
        "details": "See {IERC20-allowance}."
      },
      "approve(address,uint256)": {
        "details": "See {IERC20-approve}. NOTE: If `amount` is the maximum `uint256`, the allowance is not updated on `transferFrom`. This is semantically equivalent to an infinite approval. Requirements: - `spender` cannot be the zero address."
      },
      "balanceOf(address)": {
        "details": "See {IERC20-balanceOf}."
      },
      "decimals()": {
        "details": "Returns the number of decimals used to get its user representation. For example, if `decimals` equals `2`, a balance of `505` tokens should be displayed to a user as `5.05` (`505 / 10 ** 2`). Tokens usually opt for a value of 18, imitating the relationship between Ether and Wei. This is the value {ERC20} uses, unless this function is overridden; NOTE: This information is only used for _display_ purposes: it in no way affects any of the arithmetic of the contract, including {IERC20-balanceOf} and {IERC20-transfer}."
      },
      "decreaseAllowance(address,uint256)": {
        "details": "Atomically decreases the allowance granted to `spender` by the caller. This is an alternative to {approve} that can be used as a mitigation for problems described in {IERC20-approve}. Emits an {Approval} event indicating the updated allowance. Requirements: - `spender` cannot be the zero address. - `spender` must have allowance for the caller of at least `subtractedValue`."
      },
      "increaseAllowance(address,uint256)": {
        "details": "Atomically increases the allowance granted to `spender` by the caller. This is an alternative to {approve} that can be used as a mitigation for problems described in {IERC20-approve}. Emits an {Approval} event indicating the updated allowance. Requirements: - `spender` cannot be the zero address."
      },
      "name()": {
        "details": "Returns the name of the token."
      },
      "owner()": {
        "details": "Returns the address of the current owner."
      },
      "renounceOwnership()": {
        "details": "Leaves the contract without owner. It will not be possible to call `onlyOwner` functions anymore. Can only be called by the current owner. NOTE: Renouncing ownership will leave the contract without an owner, thereby removing any functionality that is only available to the owner."
      },
      "symbol()": {
        "details": "Returns the symbol of the token, usually a shorter version of the name."
      },
      "totalSupply()": {
        "details": "See {IERC20-totalSupply}."
      },
      "transfer(address,uint256)": {
        "details": "See {IERC20-transfer}. Requirements: - `to` cannot be the zero address. - the caller must have a balance of at least `amount`."
      },
      "transferFrom(address,address,uint256)": {
        "details": "See {IERC20-transferFrom}. Emits an {Approval} event indicating the updated allowance. This is not required by the EIP. See the note at the beginning of {ERC20}. NOTE: Does not update the allowance if the current allowance is the maximum `uint256`. Requirements: - `from` and `to` cannot be the zero address. - `from` must have a balance of at least `amount`. - the caller must have allowance for ``from``'s tokens of at least `amount`."
      },
      "transferOwnership(address)": {
        "details": "Transfers ownership of the contract to a new account (`newOwner`). Can only be called by the current owner."
      }
    },
    "version": 1
  },
  "userdoc": {
    "kind": "user",
    "methods": {},
    "version": 1
  }
}